{
  "_format": "hh-sol-artifact-1",
  "contractName": "newPayment",
  "sourceName": "contracts/newPayment.sol",
  "abi": [
    {
      "inputs": [],
      "stateMutability": "nonpayable",
      "type": "constructor"
    },
    {
      "anonymous": false,
      "inputs": [],
      "name": "Aborted",
      "type": "event"
    },
    {
      "anonymous": false,
      "inputs": [],
      "name": "ItemReceived",
      "type": "event"
    },
    {
      "anonymous": false,
      "inputs": [],
      "name": "PurchaseConfirmed",
      "type": "event"
    },
    {
      "inputs": [],
      "name": "abort",
      "outputs": [],
      "stateMutability": "payable",
      "type": "function"
    },
    {
      "inputs": [],
      "name": "buyer",
      "outputs": [
        {
          "internalType": "address",
          "name": "",
          "type": "address"
        }
      ],
      "stateMutability": "view",
      "type": "function"
    },
    {
      "inputs": [],
      "name": "count",
      "outputs": [],
      "stateMutability": "nonpayable",
      "type": "function"
    },
    {
      "inputs": [
        {
          "internalType": "uint256",
          "name": "amount",
          "type": "uint256"
        },
        {
          "internalType": "uint256",
          "name": "nonce",
          "type": "uint256"
        },
        {
          "internalType": "bytes",
          "name": "_signature",
          "type": "bytes"
        }
      ],
      "name": "deposit",
      "outputs": [],
      "stateMutability": "payable",
      "type": "function"
    },
    {
      "inputs": [
        {
          "internalType": "uint256",
          "name": "amount",
          "type": "uint256"
        },
        {
          "internalType": "uint256",
          "name": "nonce",
          "type": "uint256"
        },
        {
          "internalType": "bytes",
          "name": "_signature",
          "type": "bytes"
        }
      ],
      "name": "isMessageVaild",
      "outputs": [
        {
          "internalType": "bool",
          "name": "",
          "type": "bool"
        }
      ],
      "stateMutability": "nonpayable",
      "type": "function"
    },
    {
      "inputs": [
        {
          "internalType": "uint256",
          "name": "productPrice",
          "type": "uint256"
        }
      ],
      "name": "itemcost",
      "outputs": [],
      "stateMutability": "payable",
      "type": "function"
    },
    {
      "inputs": [],
      "name": "price",
      "outputs": [
        {
          "internalType": "uint256",
          "name": "",
          "type": "uint256"
        }
      ],
      "stateMutability": "view",
      "type": "function"
    },
    {
      "inputs": [],
      "name": "seller",
      "outputs": [
        {
          "internalType": "address",
          "name": "",
          "type": "address"
        }
      ],
      "stateMutability": "view",
      "type": "function"
    },
    {
      "inputs": [],
      "name": "state",
      "outputs": [
        {
          "internalType": "enum newPayment.State",
          "name": "",
          "type": "uint8"
        }
      ],
      "stateMutability": "view",
      "type": "function"
    },
    {
      "inputs": [],
      "name": "totalCount",
      "outputs": [
        {
          "internalType": "uint256",
          "name": "",
          "type": "uint256"
        }
      ],
      "stateMutability": "view",
      "type": "function"
    }
  ],
  "bytecode": "0x608060405273c98e9c69119eb0b764b0d5dcbc1532de8bfc2d4f600360006101000a81548173ffffffffffffffffffffffffffffffffffffffff021916908373ffffffffffffffffffffffffffffffffffffffff16021790555034801561006557600080fd5b5060006001819055506116fc8061007d6000396000f3fe6080604052600436106100915760003560e01c80637150d8ae116100595780637150d8ae1461014a57806382e7ca3414610175578063a035b1fe14610191578063aa0b7db7146101bc578063c19d93fb146101d857610091565b806306661abd1461009657806308551a53146100ad57806334eafb11146100d857806335a063b4146101035780634227d40d1461010d575b600080fd5b3480156100a257600080fd5b506100ab610203565b005b3480156100b957600080fd5b506100c261021e565b6040516100cf9190610ff4565b60405180910390f35b3480156100e457600080fd5b506100ed610244565b6040516100fa919061118a565b60405180910390f35b61010b61024a565b005b34801561011957600080fd5b50610134600480360381019061012f9190610d50565b610488565b604051610141919061100f565b60405180910390f35b34801561015657600080fd5b5061015f610578565b60405161016c9190610ff4565b60405180910390f35b61018f600480360381019061018a9190610d27565b61059e565b005b34801561019d57600080fd5b506101a66105d0565b6040516101b3919061118a565b60405180910390f35b6101d660048036038101906101d19190610d50565b6105d6565b005b3480156101e457600080fd5b506101ed610790565b6040516101fa919061106f565b60405180910390f35b60018060008282546102159190611217565b92505081905550565b600360009054906101000a900473ffffffffffffffffffffffffffffffffffffffff1681565b60015481565b600460009054906101000a900473ffffffffffffffffffffffffffffffffffffffff1673ffffffffffffffffffffffffffffffffffffffff163373ffffffffffffffffffffffffffffffffffffffff16146102da576040517f08c379a00000000000000000000000000000000000000000000000000000000081526004016102d19061110a565b60405180910390fd5b6000806002811115610315577f4e487b7100000000000000000000000000000000000000000000000000000000600052602160045260246000fd5b600460149054906101000a900460ff16600281111561035d577f4e487b7100000000000000000000000000000000000000000000000000000000600052602160045260246000fd5b1461039d576040517f08c379a00000000000000000000000000000000000000000000000000000000081526004016103949061116a565b60405180910390fd5b7f72c874aeff0b183a56e2b79c71b46e1aed4dee5e09862134b8821ba2fddbf8bf60405160405180910390a16002600460146101000a81548160ff02191690836002811115610415577f4e487b7100000000000000000000000000000000000000000000000000000000600052602160045260246000fd5b0217905550600460009054906101000a900473ffffffffffffffffffffffffffffffffffffffff1673ffffffffffffffffffffffffffffffffffffffff166108fc6002549081150290604051600060405180830381858888f19350505050158015610484573d6000803e3d6000fd5b5050565b600080600084815260200190815260200160002060009054906101000a900460ff16156104b457600080fd5b600160008085815260200190815260200160002060006101000a81548160ff02191690831515021790555060008484306040516020016104f693929190610fb7565b6040516020818303038152906040528051906020012090506000610519826107a3565b9050600061052782866107d3565b90508073ffffffffffffffffffffffffffffffffffffffff163373ffffffffffffffffffffffffffffffffffffffff1614156105695760019350505050610571565b600093505050505b9392505050565b600460009054906101000a900473ffffffffffffffffffffffffffffffffffffffff1681565b633b9aca00816105ae919061126d565b60028190555060018060008282546105c69190611217565b9250508190555050565b60025481565b600254341461061a576040517f08c379a0000000000000000000000000000000000000000000000000000000008152600401610611906110ca565b60405180910390fd5b610625838383610488565b610664576040517f08c379a000000000000000000000000000000000000000000000000000000000815260040161065b906110ea565b60405180910390fd5b7fd5d55c8a68912e9a110618df8d5e2e83b8d83211c57a8ddd1203df92885dc88160405160405180910390a133600460006101000a81548173ffffffffffffffffffffffffffffffffffffffff021916908373ffffffffffffffffffffffffffffffffffffffff1602179055506000600460146101000a81548160ff0219169083600281111561071d577f4e487b7100000000000000000000000000000000000000000000000000000000600052602160045260246000fd5b0217905550600360009054906101000a900473ffffffffffffffffffffffffffffffffffffffff1673ffffffffffffffffffffffffffffffffffffffff166108fc479081150290604051600060405180830381858888f1935050505015801561078a573d6000803e3d6000fd5b50505050565b600460149054906101000a900460ff1681565b6000816040516020016107b69190610f91565b604051602081830303815290604052805190602001209050919050565b60008060006107e285856107fa565b915091506107ef8161084c565b819250505092915050565b60008060418351141561083c5760008060006020860151925060408601519150606086015160001a905061083087828585610b9d565b94509450505050610845565b60006002915091505b9250929050565b60006004811115610886577f4e487b7100000000000000000000000000000000000000000000000000000000600052602160045260246000fd5b8160048111156108bf577f4e487b7100000000000000000000000000000000000000000000000000000000600052602160045260246000fd5b14156108ca57610b9a565b60016004811115610904577f4e487b7100000000000000000000000000000000000000000000000000000000600052602160045260246000fd5b81600481111561093d577f4e487b7100000000000000000000000000000000000000000000000000000000600052602160045260246000fd5b141561097e576040517f08c379a00000000000000000000000000000000000000000000000000000000081526004016109759061108a565b60405180910390fd5b600260048111156109b8577f4e487b7100000000000000000000000000000000000000000000000000000000600052602160045260246000fd5b8160048111156109f1577f4e487b7100000000000000000000000000000000000000000000000000000000600052602160045260246000fd5b1415610a32576040517f08c379a0000000000000000000000000000000000000000000000000000000008152600401610a29906110aa565b60405180910390fd5b60036004811115610a6c577f4e487b7100000000000000000000000000000000000000000000000000000000600052602160045260246000fd5b816004811115610aa5577f4e487b7100000000000000000000000000000000000000000000000000000000600052602160045260246000fd5b1415610ae6576040517f08c379a0000000000000000000000000000000000000000000000000000000008152600401610add9061112a565b60405180910390fd5b600480811115610b1f577f4e487b7100000000000000000000000000000000000000000000000000000000600052602160045260246000fd5b816004811115610b58577f4e487b7100000000000000000000000000000000000000000000000000000000600052602160045260246000fd5b1415610b99576040517f08c379a0000000000000000000000000000000000000000000000000000000008152600401610b909061114a565b60405180910390fd5b5b50565b6000807f7fffffffffffffffffffffffffffffff5d576e7357a4501ddfe92f46681b20a08360001c1115610bd8576000600391509150610ca1565b601b8560ff1614158015610bf05750601c8560ff1614155b15610c02576000600491509150610ca1565b600060018787878760405160008152602001604052604051610c27949392919061102a565b6020604051602081039080840390855afa158015610c49573d6000803e3d6000fd5b505050602060405103519050600073ffffffffffffffffffffffffffffffffffffffff168173ffffffffffffffffffffffffffffffffffffffff161415610c9857600060019250925050610ca1565b80600092509250505b94509492505050565b6000610cbd610cb8846111ca565b6111a5565b905082815260208101848484011115610cd557600080fd5b610ce084828561136f565b509392505050565b600082601f830112610cf957600080fd5b8135610d09848260208601610caa565b91505092915050565b600081359050610d21816116af565b92915050565b600060208284031215610d3957600080fd5b6000610d4784828501610d12565b91505092915050565b600080600060608486031215610d6557600080fd5b6000610d7386828701610d12565b9350506020610d8486828701610d12565b925050604084013567ffffffffffffffff811115610da157600080fd5b610dad86828701610ce8565b9150509250925092565b610dc0816112c7565b82525050565b610dcf816112d9565b82525050565b610dde816112e5565b82525050565b610df5610df0826112e5565b6113c1565b82525050565b610e0c610e0782611339565b6113af565b82525050565b610e1b8161135d565b82525050565b6000610e2e6018836111fb565b9150610e3982611492565b602082019050919050565b6000610e51601f836111fb565b9150610e5c826114bb565b602082019050919050565b6000610e74601c8361120c565b9150610e7f826114e4565b601c82019050919050565b6000610e976027836111fb565b9150610ea28261150d565b604082019050919050565b6000610eba6019836111fb565b9150610ec58261155c565b602082019050919050565b6000610edd601c836111fb565b9150610ee882611585565b602082019050919050565b6000610f006022836111fb565b9150610f0b826115ae565b604082019050919050565b6000610f236022836111fb565b9150610f2e826115fd565b604082019050919050565b6000610f46602a836111fb565b9150610f518261164c565b604082019050919050565b610f6581611322565b82525050565b610f7c610f7782611322565b6113dd565b82525050565b610f8b8161132c565b82525050565b6000610f9c82610e67565b9150610fa88284610de4565b60208201915081905092915050565b6000610fc38286610f6b565b602082019150610fd38285610f6b565b602082019150610fe38284610dfb565b601482019150819050949350505050565b60006020820190506110096000830184610db7565b92915050565b60006020820190506110246000830184610dc6565b92915050565b600060808201905061103f6000830187610dd5565b61104c6020830186610f82565b6110596040830185610dd5565b6110666060830184610dd5565b95945050505050565b60006020820190506110846000830184610e12565b92915050565b600060208201905081810360008301526110a381610e21565b9050919050565b600060208201905081810360008301526110c381610e44565b9050919050565b600060208201905081810360008301526110e381610e8a565b9050919050565b6000602082019050818103600083015261110381610ead565b9050919050565b6000602082019050818103600083015261112381610ed0565b9050919050565b6000602082019050818103600083015261114381610ef3565b9050919050565b6000602082019050818103600083015261116381610f16565b9050919050565b6000602082019050818103600083015261118381610f39565b9050919050565b600060208201905061119f6000830184610f5c565b92915050565b60006111af6111c0565b90506111bb828261137e565b919050565b6000604051905090565b600067ffffffffffffffff8211156111e5576111e4611445565b5b6111ee82611474565b9050602081019050919050565b600082825260208201905092915050565b600081905092915050565b600061122282611322565b915061122d83611322565b9250827fffffffffffffffffffffffffffffffffffffffffffffffffffffffffffffffff03821115611262576112616113e7565b5b828201905092915050565b600061127882611322565b915061128383611322565b9250817fffffffffffffffffffffffffffffffffffffffffffffffffffffffffffffffff04831182151516156112bc576112bb6113e7565b5b828202905092915050565b60006112d282611302565b9050919050565b60008115159050919050565b6000819050919050565b60008190506112fd8261169b565b919050565b600073ffffffffffffffffffffffffffffffffffffffff82169050919050565b6000819050919050565b600060ff82169050919050565b60006113448261134b565b9050919050565b600061135682611302565b9050919050565b6000611368826112ef565b9050919050565b82818337600083830152505050565b61138782611474565b810181811067ffffffffffffffff821117156113a6576113a5611445565b5b80604052505050565b60006113ba826113cb565b9050919050565b6000819050919050565b60006113d682611485565b9050919050565b6000819050919050565b7f4e487b7100000000000000000000000000000000000000000000000000000000600052601160045260246000fd5b7f4e487b7100000000000000000000000000000000000000000000000000000000600052602160045260246000fd5b7f4e487b7100000000000000000000000000000000000000000000000000000000600052604160045260246000fd5b6000601f19601f8301169050919050565b60008160601b9050919050565b7f45434453413a20696e76616c6964207369676e61747572650000000000000000600082015250565b7f45434453413a20696e76616c6964207369676e6174757265206c656e67746800600082015250565b7f19457468657265756d205369676e6564204d6573736167653a0a333200000000600082015250565b7f506c6561736520706179206163636f7264696e6720746f20746865206974656d60008201527f2070726963652e00000000000000000000000000000000000000000000000000602082015250565b7f4d757374206e65656420796f7572207369676e61747572652e00000000000000600082015250565b7f4f6e6c7920616c6c6f772062757965727320746f206163636573732e00000000600082015250565b7f45434453413a20696e76616c6964207369676e6174757265202773272076616c60008201527f7565000000000000000000000000000000000000000000000000000000000000602082015250565b7f45434453413a20696e76616c6964207369676e6174757265202776272076616c60008201527f7565000000000000000000000000000000000000000000000000000000000000602082015250565b7f54686520737461747573206f6620746865206f72646572206973206e6f74206160008201527f6374696f6e61626c652e00000000000000000000000000000000000000000000602082015250565b600381106116ac576116ab611416565b5b50565b6116b881611322565b81146116c357600080fd5b5056fea2646970667358221220a52a37302d4ce8fc4f3ff7bea75421acd6851c88b72b3cc3aef49732c4a5104f64736f6c63430008040033",
  "linkReferences": {},
  "deployedLinkReferences": {}
}