{
  "_format": "hh-sol-artifact-1",
  "contractName": "newPayment",
  "sourceName": "contracts/newPayment.sol",
  "abi": [
    {
      "anonymous": false,
      "inputs": [],
      "name": "Aborted",
      "type": "event"
    },
    {
      "anonymous": false,
      "inputs": [],
      "name": "ItemReceived",
      "type": "event"
    },
    {
      "anonymous": false,
      "inputs": [],
      "name": "PurchaseConfirmed",
      "type": "event"
    },
    {
      "inputs": [],
      "name": "abort",
      "outputs": [],
      "stateMutability": "payable",
      "type": "function"
    },
    {
      "inputs": [],
      "name": "buyer",
      "outputs": [
        {
          "internalType": "address",
          "name": "",
          "type": "address"
        }
      ],
      "stateMutability": "view",
      "type": "function"
    },
    {
      "inputs": [
        {
          "internalType": "bytes",
          "name": "_signature",
          "type": "bytes"
        }
      ],
      "name": "deposit",
      "outputs": [],
      "stateMutability": "payable",
      "type": "function"
    },
    {
      "inputs": [
        {
          "internalType": "bytes",
          "name": "_signature",
          "type": "bytes"
        }
      ],
      "name": "isMessageVaild",
      "outputs": [
        {
          "internalType": "bool",
          "name": "",
          "type": "bool"
        }
      ],
      "stateMutability": "view",
      "type": "function"
    },
    {
      "inputs": [
        {
          "internalType": "uint256",
          "name": "productPrice",
          "type": "uint256"
        }
      ],
      "name": "itemcost",
      "outputs": [],
      "stateMutability": "payable",
      "type": "function"
    },
    {
      "inputs": [],
      "name": "price",
      "outputs": [
        {
          "internalType": "uint256",
          "name": "",
          "type": "uint256"
        }
      ],
      "stateMutability": "view",
      "type": "function"
    },
    {
      "inputs": [],
      "name": "seller",
      "outputs": [
        {
          "internalType": "address",
          "name": "",
          "type": "address"
        }
      ],
      "stateMutability": "view",
      "type": "function"
    },
    {
      "inputs": [],
      "name": "state",
      "outputs": [
        {
          "internalType": "enum newPayment.State",
          "name": "",
          "type": "uint8"
        }
      ],
      "stateMutability": "view",
      "type": "function"
    }
  ],
  "bytecode": "0x608060405273c98e9c69119eb0b764b0d5dcbc1532de8bfc2d4f600160006101000a81548173ffffffffffffffffffffffffffffffffffffffff021916908373ffffffffffffffffffffffffffffffffffffffff16021790555034801561006557600080fd5b50611529806100756000396000f3fe60806040526004361061007b5760003560e01c806382e7ca341161004e57806382e7ca341461011d57806398b1e06a14610139578063a035b1fe14610155578063c19d93fb146101805761007b565b806308551a531461008057806328308398146100ab57806335a063b4146100e85780637150d8ae146100f2575b600080fd5b34801561008c57600080fd5b506100956101ab565b6040516100a29190610ead565b60405180910390f35b3480156100b757600080fd5b506100d260048036038101906100cd9190610c39565b6101d1565b6040516100df9190610ec8565b60405180910390f35b6100f061026a565b005b3480156100fe57600080fd5b506101076104a7565b6040516101149190610ead565b60405180910390f35b61013760048036038101906101329190610c7a565b6104cd565b005b610153600480360381019061014e9190610c39565b6104e6565b005b34801561016157600080fd5b5061016a61069c565b6040516101779190611043565b60405180910390f35b34801561018c57600080fd5b506101956106a2565b6040516101a29190610f28565b60405180910390f35b600160009054906101000a900473ffffffffffffffffffffffffffffffffffffffff1681565b6000806040516020016101e390610e98565b6040516020818303038152906040529050600081805190602001209050600061020b826106b5565b9050600061021982876106e5565b90508073ffffffffffffffffffffffffffffffffffffffff163373ffffffffffffffffffffffffffffffffffffffff16141561025c576001945050505050610265565b60009450505050505b919050565b600260009054906101000a900473ffffffffffffffffffffffffffffffffffffffff1673ffffffffffffffffffffffffffffffffffffffff163373ffffffffffffffffffffffffffffffffffffffff16146102fa576040517f08c379a00000000000000000000000000000000000000000000000000000000081526004016102f190610fc3565b60405180910390fd5b6000806002811115610335577f4e487b7100000000000000000000000000000000000000000000000000000000600052602160045260246000fd5b600260149054906101000a900460ff16600281111561037d577f4e487b7100000000000000000000000000000000000000000000000000000000600052602160045260246000fd5b146103bd576040517f08c379a00000000000000000000000000000000000000000000000000000000081526004016103b490611023565b60405180910390fd5b7f72c874aeff0b183a56e2b79c71b46e1aed4dee5e09862134b8821ba2fddbf8bf60405160405180910390a160028060146101000a81548160ff02191690836002811115610434577f4e487b7100000000000000000000000000000000000000000000000000000000600052602160045260246000fd5b0217905550600260009054906101000a900473ffffffffffffffffffffffffffffffffffffffff1673ffffffffffffffffffffffffffffffffffffffff166108fc6000549081150290604051600060405180830381858888f193505050501580156104a3573d6000803e3d6000fd5b5050565b600260009054906101000a900473ffffffffffffffffffffffffffffffffffffffff1681565b633b9aca00816104dd91906110d0565b60008190555050565b600054341461052a576040517f08c379a000000000000000000000000000000000000000000000000000000000815260040161052190610f83565b60405180910390fd5b610533816101d1565b610572576040517f08c379a000000000000000000000000000000000000000000000000000000000815260040161056990610fa3565b60405180910390fd5b7fd5d55c8a68912e9a110618df8d5e2e83b8d83211c57a8ddd1203df92885dc88160405160405180910390a133600260006101000a81548173ffffffffffffffffffffffffffffffffffffffff021916908373ffffffffffffffffffffffffffffffffffffffff1602179055506000600260146101000a81548160ff0219169083600281111561062b577f4e487b7100000000000000000000000000000000000000000000000000000000600052602160045260246000fd5b0217905550600160009054906101000a900473ffffffffffffffffffffffffffffffffffffffff1673ffffffffffffffffffffffffffffffffffffffff166108fc479081150290604051600060405180830381858888f19350505050158015610698573d6000803e3d6000fd5b5050565b60005481565b600260149054906101000a900460ff1681565b6000816040516020016106c89190610e72565b604051602081830303815290604052805190602001209050919050565b60008060006106f4858561070c565b915091506107018161075e565b819250505092915050565b60008060418351141561074e5760008060006020860151925060408601519150606086015160001a905061074287828585610aaf565b94509450505050610757565b60006002915091505b9250929050565b60006004811115610798577f4e487b7100000000000000000000000000000000000000000000000000000000600052602160045260246000fd5b8160048111156107d1577f4e487b7100000000000000000000000000000000000000000000000000000000600052602160045260246000fd5b14156107dc57610aac565b60016004811115610816577f4e487b7100000000000000000000000000000000000000000000000000000000600052602160045260246000fd5b81600481111561084f577f4e487b7100000000000000000000000000000000000000000000000000000000600052602160045260246000fd5b1415610890576040517f08c379a000000000000000000000000000000000000000000000000000000000815260040161088790610f43565b60405180910390fd5b600260048111156108ca577f4e487b7100000000000000000000000000000000000000000000000000000000600052602160045260246000fd5b816004811115610903577f4e487b7100000000000000000000000000000000000000000000000000000000600052602160045260246000fd5b1415610944576040517f08c379a000000000000000000000000000000000000000000000000000000000815260040161093b90610f63565b60405180910390fd5b6003600481111561097e577f4e487b7100000000000000000000000000000000000000000000000000000000600052602160045260246000fd5b8160048111156109b7577f4e487b7100000000000000000000000000000000000000000000000000000000600052602160045260246000fd5b14156109f8576040517f08c379a00000000000000000000000000000000000000000000000000000000081526004016109ef90610fe3565b60405180910390fd5b600480811115610a31577f4e487b7100000000000000000000000000000000000000000000000000000000600052602160045260246000fd5b816004811115610a6a577f4e487b7100000000000000000000000000000000000000000000000000000000600052602160045260246000fd5b1415610aab576040517f08c379a0000000000000000000000000000000000000000000000000000000008152600401610aa290611003565b60405180910390fd5b5b50565b6000807f7fffffffffffffffffffffffffffffff5d576e7357a4501ddfe92f46681b20a08360001c1115610aea576000600391509150610bb3565b601b8560ff1614158015610b025750601c8560ff1614155b15610b14576000600491509150610bb3565b600060018787878760405160008152602001604052604051610b399493929190610ee3565b6020604051602081039080840390855afa158015610b5b573d6000803e3d6000fd5b505050602060405103519050600073ffffffffffffffffffffffffffffffffffffffff168173ffffffffffffffffffffffffffffffffffffffff161415610baa57600060019250925050610bb3565b80600092509250505b94509492505050565b6000610bcf610bca84611083565b61105e565b905082815260208101848484011115610be757600080fd5b610bf28482856111ae565b509392505050565b600082601f830112610c0b57600080fd5b8135610c1b848260208601610bbc565b91505092915050565b600081359050610c33816114dc565b92915050565b600060208284031215610c4b57600080fd5b600082013567ffffffffffffffff811115610c6557600080fd5b610c7184828501610bfa565b91505092915050565b600060208284031215610c8c57600080fd5b6000610c9a84828501610c24565b91505092915050565b610cac8161112a565b82525050565b610cbb8161113c565b82525050565b610cca81611148565b82525050565b610ce1610cdc82611148565b6111ee565b82525050565b610cf08161119c565b82525050565b6000610d036018836110b4565b9150610d0e82611296565b602082019050919050565b6000610d26601f836110b4565b9150610d31826112bf565b602082019050919050565b6000610d49601c836110c5565b9150610d54826112e8565b601c82019050919050565b6000610d6c6027836110b4565b9150610d7782611311565b604082019050919050565b6000610d8f6019836110b4565b9150610d9a82611360565b602082019050919050565b6000610db2601c836110b4565b9150610dbd82611389565b602082019050919050565b6000610dd56022836110b4565b9150610de0826113b2565b604082019050919050565b6000610df8600a836110c5565b9150610e0382611401565b600a82019050919050565b6000610e1b6022836110b4565b9150610e268261142a565b604082019050919050565b6000610e3e602a836110b4565b9150610e4982611479565b604082019050919050565b610e5d81611185565b82525050565b610e6c8161118f565b82525050565b6000610e7d82610d3c565b9150610e898284610cd0565b60208201915081905092915050565b6000610ea382610deb565b9150819050919050565b6000602082019050610ec26000830184610ca3565b92915050565b6000602082019050610edd6000830184610cb2565b92915050565b6000608082019050610ef86000830187610cc1565b610f056020830186610e63565b610f126040830185610cc1565b610f1f6060830184610cc1565b95945050505050565b6000602082019050610f3d6000830184610ce7565b92915050565b60006020820190508181036000830152610f5c81610cf6565b9050919050565b60006020820190508181036000830152610f7c81610d19565b9050919050565b60006020820190508181036000830152610f9c81610d5f565b9050919050565b60006020820190508181036000830152610fbc81610d82565b9050919050565b60006020820190508181036000830152610fdc81610da5565b9050919050565b60006020820190508181036000830152610ffc81610dc8565b9050919050565b6000602082019050818103600083015261101c81610e0e565b9050919050565b6000602082019050818103600083015261103c81610e31565b9050919050565b60006020820190506110586000830184610e54565b92915050565b6000611068611079565b905061107482826111bd565b919050565b6000604051905090565b600067ffffffffffffffff82111561109e5761109d611256565b5b6110a782611285565b9050602081019050919050565b600082825260208201905092915050565b600081905092915050565b60006110db82611185565b91506110e683611185565b9250817fffffffffffffffffffffffffffffffffffffffffffffffffffffffffffffffff048311821515161561111f5761111e6111f8565b5b828202905092915050565b600061113582611165565b9050919050565b60008115159050919050565b6000819050919050565b6000819050611160826114c8565b919050565b600073ffffffffffffffffffffffffffffffffffffffff82169050919050565b6000819050919050565b600060ff82169050919050565b60006111a782611152565b9050919050565b82818337600083830152505050565b6111c682611285565b810181811067ffffffffffffffff821117156111e5576111e4611256565b5b80604052505050565b6000819050919050565b7f4e487b7100000000000000000000000000000000000000000000000000000000600052601160045260246000fd5b7f4e487b7100000000000000000000000000000000000000000000000000000000600052602160045260246000fd5b7f4e487b7100000000000000000000000000000000000000000000000000000000600052604160045260246000fd5b6000601f19601f8301169050919050565b7f45434453413a20696e76616c6964207369676e61747572650000000000000000600082015250565b7f45434453413a20696e76616c6964207369676e6174757265206c656e67746800600082015250565b7f19457468657265756d205369676e6564204d6573736167653a0a333200000000600082015250565b7f506c6561736520706179206163636f7264696e6720746f20746865206974656d60008201527f2070726963652e00000000000000000000000000000000000000000000000000602082015250565b7f4d757374206e65656420796f7572207369676e61747572652e00000000000000600082015250565b7f4f6e6c7920616c6c6f772062757965727320746f206163636573732e00000000600082015250565b7f45434453413a20696e76616c6964207369676e6174757265202773272076616c60008201527f7565000000000000000000000000000000000000000000000000000000000000602082015250565b7f48656c6c6f576f726c6400000000000000000000000000000000000000000000600082015250565b7f45434453413a20696e76616c6964207369676e6174757265202776272076616c60008201527f7565000000000000000000000000000000000000000000000000000000000000602082015250565b7f54686520737461747573206f6620746865206f72646572206973206e6f74206160008201527f6374696f6e61626c652e00000000000000000000000000000000000000000000602082015250565b600381106114d9576114d8611227565b5b50565b6114e581611185565b81146114f057600080fd5b5056fea264697066735822122074c5f26d398bf0420a6d909a1e636e7985e3cda2cab8db5390c6e0f5e84a88ad64736f6c63430008040033",
  "linkReferences": {},
  "deployedLinkReferences": {}
}